:100000000C9455350C9486350C9486350C948635B5
:100010000C9486350C94CD8D0C9486350C948635D5
:100020000C9442910C9486350C9486350C9486354C
:100030000C9486350C9486350C94A3BF0C9410BF99
:100040000C9486350C94A6960C9486350C948635C3
:100050000C9486350C9486350C9486350C94FEE50C
:100060000C9486350D94F0720C9486350C9486357C
:100070000C9486350C9486350C9486350C94863514
:100080000C9486350C9486350C9486350C94863504
:100090000D94AC720C9486350C9486350C94863590
:1000A0000C9486350C9486350C9486350C948635E4
:1000B0000C9486350C9486350C9486350C948635D4
:1000C0000C9486350C9486350C9486350C9487FBFD
:1000D0000C9486350C9486350C9486350C948635B4
:1000E0000C948635F14DF74DFD4D084E134E984E4C
:1000F0001E4E274E304E3B4E464E514E614E6C4E7C
:10010000984E774E824E8D4EC1A4CCA46DA43AA4D5
:1001100009A4B6A7FEA428A6B0A607A724A75CA793
:10012000C4D0C4D0C7D0C4D0C7D0CAD0CDD0E2DDEF
:10013000FADD0DDE1ADE24DE55DE76DE7DDE8BDEB8
:1001400090DE93DE9DDEABDEBCDE1AE624E632E610
:100150003FE651E658E694E676E68CE634E836E883
:1001600034E836E834E836E838E83AE8DA015C02A0
:100170000A02F0021E0236031A02F4029601C002BD
:1001800046025202260226022602260226022602E3
:1001900026022602E801F001C0012A029C020002A8
:1001A000FC01D402B001DE02B602D2011E036601D8
:1001B0009402C2011A034E02A801AC026201640259
:1001C000680172010202EA027C025802D0010C03AB
:1001D000180268017002CC02C802084AD73B3BCE25
:1001E000016E84BCBFFDC12F3D6C74319ABD568336
:1001F0003DDA3D00C77F11BED9E4BB4C3E916BAAEE
:10020000AABE000000803F05A84CCDB2D44EB9383C
:1002100036A9020C50B9918688083CA6AAAA2ABE23
:10022000000000803F07634236B79BD8A71A3968A1
:100230005618AEBAAB558C1D3CB7CC5763BD6DEDAF
:10024000FD753EF6177231BF000000803F080000C8
:1002500000BE922449123EABAAAA2ABECDCCCC4CF9
:100260003E00000080BEABAAAAAA3E00000000BF6C
:10027000000000803F0000000000084178D3BB432D
:1002800087D1133D190E3CC3BD4282AD2B3E68ECB5
:100290008276BED98FE1A93E4C80EFFFBE01C4FF3C
:1002A0007F3F0000000000000D94B5020C9414B1D3
:1002B0000C9424A70C9490DE0C943AE80C94F14D25
:1002C0000D94E3010D94ED760C9408B00D94571045
:1002D0000D9431770C9455DE0C9413DD0C941ADEDA
:1002E0000D946E9A0D94FE760C94A4D90C94304E15
:1002F0000C94ABDE0C94FEA40C941FD90C94E4DB9C
:100300000C9465EA0C9432E60D94840C0C9404DF92
:100310000D94D4180C941E4E0D9479020D94510135
:100320000C94C8DB0C94D8FE0C94B7D90D945A07E2
:100330000C94B7D70C94CCA40D94CE180D947119CD
:100340000C9493DE0C94CAD00C947ED90C94EAA23F
:100350000D94FA760C941AE60C943AA40C945CD1A1
:100360000D9413100C94EEC50C94FECA0C94C4D0DA
:100370000C94E4C50C941CCB0C94C7D00D94840051
:100380000D9470060D947C100C946C4E0C947BDDD7
:100390000D94610D0D9428000D9485190C94D5D8F9
:1003A0000D9416770D943B100C9424E60D944C0D8F
:1003B0000D9480190D94AF030C9444D10C942EF439
:1003C0000C9494E60C9464D10C94774E0C9447DD15
:1003D0000D94AD030C94F8C50C94274E0C944CB0BE
:1003E0000D946E060C946DA40D9405090C94B6C87A
:1003F0000C946CD10C9497B30D94FB0F0C941DCD01
:100400000D94ED0F0D9402770C94EFFF0C94F1B561
:100410000C94E2DD0D94FC060C9492DB0C94B0A6D7
:100420000C9476E60C945DC70C941BB30C945CA7FB
:100430000D941E770D94D0060C94F6DB0D94E60611
:100440000C948CE60C94DDDB0C94614E0D94B2039D
:100450000C94B6A70D9474060C94FD4D0C9408CB27
:100460000D9456000C94CAD90C94F4B60C94E8B5CB
:100470000C943FE60D94A2010C94DDD90C9476DE29
:100480000C9463CC0D94CA180C94ACD70D947806D8
:100490000D9452190D943F0D0D94D80C0D94F776D0
:1004A0000C9434E80D943F070C94CFDB0C94134E5E
:1004B0000D9410770D9489190D942C070C945FDC22
:1004C0000C941DD10D94B4010D94F3760C942DEA87
:1004D0000C9428A60C94D6DB0C9451E60D94761956
:1004E0000D9424770C9436C80D94871E0C9424DE4A
:1004F0000C9458CF0C948BDE0D940C770C9432D165
:100500000C94ACAF0C94CBD20C948D4E0C9407A7EA
:100510000C94B1FE0C940DDE0C94F9B50C9436E8F5
:100520000C94F1D90C9409D10D9465100C944CD114
:100530000C944CEA0C94E7D90D9476060D941F01A7
:100540000C94C8C50C94AFD80C94C6B70C9409A4ED
:100550000C9401C60D945B020D94E9760C94B9F4E9
:100560000C94CFDC0C94A9B00D9448730D94351005
:100570000D946C0D0D943D020C94984E0C94ACF5BA
:100580000D94A6060C94F3F40C94C1A40C94BCCC6A
:100590000D942C770D94C4010D9428770D942C0F95
:1005A0000C94A6B60D9401020D9401100D946719D8
:1005B0000C9412CB0D94960C0C94FADD0D942F1024
:1005C0000C949BDC0C94BCDE0C9454D10D94340937
:1005D0000C943CD10D9408770C94FCE50C9412DA41
:1005E0000D94F1060D94D7000D946A070C947FB119
:1005F0000C943B4E0C9458E60C94514E0C94CDD078
:100600000C9451CC0C949DDE0C94084E0C94CFB7F6
:100610000D941F020D9407090D941A770C9402DCB7
:100620000C9413D80C9433FE0C94F74D0C948EFF5D
:100630000D94D9180D948A100C947DDE0D944910F8
:100640000C9474D20C9438E80D947B190D94970295
:100650000D946C190D9462190C944FD30C940CF5F5
:100660000D9400930C94824E0C94464E0D94DB0630
:100670006E616E00696E66004E414E494E49545996
:10068000494E46CDCCCC3D0AD7233C17B7D138775D
:10069000CC2B329595E6241FB14F0A000020410073
:1006A00000C84200401C4620BCBE4CCA1B0E5AAEBD
:1006B000C59D7400407A10F35A00A0724E180900CC
:1006C00010A5D4E80000E87648170000E40B5402B7
:1006D0000000CA9A3B000000E1F5050000809698F2
:1006E00000000040420F000000A086010000001042
:1006F0002700000000E80300000000640000000084
:10070000000A00000000000100000000002C76D864
:1007100088DC674F0823DFC1DFAE59E1B1B796E54A
:10072000E3E453C63AE651997696E8E6C28426EBAE
:10073000898C9B62ED407C6FFCEFBC9C9F40F2BAC1
:10074000A56FA5F490055A2AF75C936B6CF9676D59
:10075000C11BFCE0E40D47FEF520E6B500D0ED90AE
:100760002E0300943577050080841E080000204E7B
:100770000A000000C80C333333330F986E12831114
:1007800041EF8D2114893BE65516CFFEE6DB18D1EB
:10079000844B381BF77C1D901DA4BBE424203284BD
:1007A000725E228100C9F124ECA1E53D27636469F2
:1007B0006E6F70737578585B00256420627974657C
:1007C00073207772697474656E20746F204545508C
:1007D000524F4D20617420616464726573732030E0
:1007E0007825303478004433202D20526561642F01
:1007F000577269746520454550524F4D0A00204399
:100800006F756E7420583A20005344207072696EE0
:1008100074696E67206279746520004E6F74206978
:100820006E206661726D206D6F64652E0041637489
:100830006976652045787472756465723A2000495E
:100840006E76616C69642065787472756465720097
:100850005A204F666673657400556E6B6E6F776EC7
:1008600020636F6D6D616E643A2022004D3230302E
:1008700020496E76616C6964206578747275646570
:100880007220007A5F6D61783A20007A5F6D696E40
:100890003A2000795F6D61783A2000795F6D696E6A
:1008A0003A2000785F6D61783A20006F70656E00C5
:1008B00054524947474552454400785F6D696E3A46
:1008C00020005265706F7274696E6720656E647384
:1008D000746F7020737461747573000053494C45D4
:1008E0004E54004E4F524D414C002553204D4F4425
:1008F000453A2050657263656E7420646F6E653A88
:100900002025643B207072696E742074696D6520C7
:1009100072656D61696E696E6720696E206D696EC2
:10092000733A2025640A00456E642066696C652070
:100930006C69737400426567696E2066696C652036
:100940006C697374000A50494E44412074656D709F
:10095000657261747572653A20252E3166205A20C1
:10096000736869667420286D6D293A20252E3366D8
:10097000000A537465703A2025642F360A000A5322
:100980007465703A2025642F362028736B69707067
:100990006564290A50494E44412074656D70657242
:1009A00061747572653A202564205A2073686966FF
:1009B0007420286D6D293A300A000A5A45524F3A80
:1009C00020252E33660A0073746172742074656D7D
:1009D00070657261747572653A20252E31660A0061
:1009E00025642020252E326600255320583A2025E4
:1009F0002E356620593A20252E3566205A3A202574
:100A00002E35660A00536C6565702E2E2E004E6FD3
:100A10007420696E206661726D206D6F64652E00B2
:100A200025640045303A25642052504D0A50524EFC
:100A3000303A25642052504D0A00256400442D317F
:100A4000202D20456E646C657373206C6F6F700A87
:100A5000004175746F0020452F443D00416476616C
:100A60006E6365204B3D004D3232302053256900C6
:100A7000255346696C616D656E7420736574746985
:100A80006E67733A2044697361626C65640A00257D
:100A90005346696C616D656E742073657474696E1C
:100AA00067733A0A25532020204D323030204425E8
:100AB0002E32660A002553526574726163743A20BF
:100AC000533D4C656E67746820286D6D2920463A49
:100AD000537065656420286D6D2F6D29205A3A206A
:100AE0005A4C69667420286D6D290A2553202020F0
:100AF0004D3230372053252E32662046252E326661
:100B0000205A252E32660A25535265636F76657228
:100B10003A20533D4578747261206C656E67746845
:100B200020286D6D2920463A537065656420286D34
:100B30006D2F6D290A25532020204D323038205347
:100B4000252E32662046252E32660A2553417574BD
:100B50006F2D526574726163743A20533D30207476
:100B60006F2064697361626C652C203120746F2082
:100B7000696E7465727072657420657874727564DC
:100B8000652D6F6E6C79206D6F76657320617320B3
:100B90007265747261637473206F72207265636F23
:100BA0007665726965730A25532020204D323039ED
:100BB000205325640A002553504944206865617418
:100BC0006265642073657474696E67733A0A2553AD
:100BD0002020204D3330342050252E3266204925E8
:100BE0002E32662044252E32660A00255350494491
:100BF0002073657474696E67733A0A255320202048
:100C00004D3330312050252E32662049252E326654
:100C10002044252E32660A002553537465707320D4
:100C200070657220756E69743A0A255320204D391B
:100C3000322058252E32662059252E3266205A251C
:100C40002E32662045252E32660A2553555374658B
:100C500070207265736F6C7574696F6E3A200A2527
:100C600053204D3335302058256420592564205AAF
:100C70002564204525640A25534D6178696D756D9D
:100C800020666565647261746573202D206E6F72D5
:100C90006D616C20286D6D2F73293A0A2553202031
:100CA0004D3230332058252E32662059252E32669B
:100CB000205A252E32662045252E32660A25534DB0
:100CC0006178696D756D20666565647261746573C0
:100CD000202D20737465616C746820286D6D2F73EE
:100CE000293A0A255320204D3230332058252E3200
:100CF000662059252E3266205A252E32662045253B
:100D00002E32660A25534D6178696D756D206163D9
:100D100063656C65726174696F6E202D206E6F72F1
:100D20006D616C20286D6D2F7332293A0A2553208E
:100D3000204D3230312058256C752059256C752096
:100D40005A256C752045256C750A25534D617869C7
:100D50006D756D20616363656C65726174696F6E3A
:100D6000202D20737465616C746820286D6D2F735D
:100D700032293A0A255320204D3230312058256C33
:100D8000752059256C75205A256C752045256C7584
:100D90000A2553416363656C65726174696F6E3ACD
:100DA00020533D616363656C65726174696F6E2C7D
:100DB00020543D7265747261637420616363656C75
:100DC00065726174696F6E0A255320204D3230348C
:100DD0002053252E32662054252E32660A25534193
:100DE0006476616E636564207661726961626C65C8
:100DF000733A20533D4D696E206665656472617477
:100E00006520286D6D2F73292C20543D4D696E206F
:100E100074726176656C20666565647261746520C4
:100E2000286D6D2F73292C20423D6D696E696D759B
:100E30006D207365676D656E742074696D6520281B
:100E40006D73292C20583D6D6178696D756D205842
:100E500059206A65726B20286D6D2F73292C202014
:100E60005A3D6D6178696D756D205A206A65726BA7
:100E700020286D6D2F73292C2020453D6D617869E8
:100E80006D756D2045206A65726B20286D6D2F731E
:100E9000290A255320204D3230352053252E326625
:100EA0002054252E32662042252E32662058252ECB
:100EB00032662059252E3266205A252E326620456C
:100EC000252E32660A2553486F6D65206F6666735E
:100ED000657420286D6D293A0A255320204D323043
:100EE000362058252E32662059252E3266205A2566
:100EF0002E32660A004625642025640A004D4D55B1
:100F0000203C3D2027462564202564270A005049BF
:100F100044204175746F74756E652066696E6973DF
:100F2000686564212050757420746865206C617355
:100F300074204B702C204B6920616E64204B642020
:100F4000636F6E7374616E74732066726F6D20616F
:100F5000626F766520696E746F20436F6E66696795
:100F600075726174696F6E2E680050494420417536
:100F7000746F74756E65206661696C656421207498
:100F8000696D656F75740020403A00543A00423A2A
:100F900000504944204175746F74756E6520666118
:100FA000696C6564212054656D7065726174757239
:100FB0006520746F6F206869676800204B643A2071
:100FC00000204B693A2000204B703A200020436CEF
:100FD00061737369632050494420002054753A209E
:100FE00000204B753A2000206D61783A2000206D7A
:100FF000696E3A200020643A200020626961733AE9
:10100000200020453A00205A3A0020593A00204555
:101010003A00205A3A0020593A00583A00005A3013
:10102000005A310059300059310058300058310011
:10103000456E642073746F70732064696167002E5D
:101040000044656C6574696F6E206661696C6564E7
:101050002C2046696C653A200046696C6520646501
:101060006C657465643A000A002F000A004E6F74C4
:10107000205344207072696E74696E670050726903
:101080006E74207361766564005344207072696EDB
:101090007420706175736564006673656E736F723A
:1010A0005F726573746F72655F7072696E745F6191
:1010B0006E645F636F6E74696E75650A004F4B00F6
:1010C0004241440052414D426F2046414E20002F84
:1010D0002F20616374696F6E3A63616E63656C00A3
:1010E00043524153485F43414E43454C00435241B4
:1010F00053485F5245434F5645520043524153486F
:101100005F5245434F564552002228322900540071
:101110004475706C696361746520542D636F6465F8
:101120002069676E6F7265642E0A004475706C6981
:101130006361746520542D636F64652069676E6F09
:101140007265642E0A00496E76616C6964205420D1
:10115000636F64652E00556E6B6E6F776E204D2049
:10116000636F64653A202573200A006E6F207661F4
:101170006C696420636F6D6D616E64002C20002CBF
:1011800020002C20006E2F61002C20002C20002C31
:1011900020006E2F61002F00503A005761697420C3
:1011A000666F722050494E444120746172676574C5
:1011B0002074656D70657261747572653A004C419A
:1011C0004E472053454C20464F5243454400222869
:1011D00031290030303030303030302D3030303048
:1011E0002D303030302D303030302D303030303008
:1011F000303030303030300020555549443A0031DD
:10120000002045585452554445525F434F554E5463
:101210003A005072757361206933204D4B3353008F
:10122000204D414348494E455F545950453A00319D
:101230002E3000206261736564206F6E204D6172F4
:101240006C696E204649524D574152455F55524C8C
:101250003A68747470733A2F2F6769746875622ED8
:10126000636F6D2F707275736133642F5072757375
:10127000612D4669726D776172652050524F544FEF
:10128000434F4C5F56455253494F4E3A00464952E0
:101290004D574152455F4E414D453A50727573610D
:1012A0002D4669726D7761726520004D31313320B2
:1012B000530020423A0020453A00543A0020413A77
:1012C0000020503A002042403A0020403A00202FAF
:1012D000003A00205400202F0020423A00202F0026
:1012E0006F6B20543A002569206D696E2C202569AA
:1012F0002073656300496E76616C6964204D2063DC
:101300006F64653A202573200A00556E6B6E6F7707
:101310006E204720636F64653A202573200A004DD4
:1013200065736820626564206C6576656C696E67BC
:10133000206E6F74206163746976652E000A002048
:1013400020000A4D6561737572656420706F696E67
:1013500074733A000A5A2073656172636820686585
:10136000696768743A20002C004E756D20582C591E
:101370003A2000206D6963726F6E73004578636573
:10138000737369766520626564206C6576656C6947
:101390006E6720636F7272656374696F6E3A2000C6
:1013A000426564206C6576656C696E67206661696C
:1013B0006C65642E2053656E736F7220747269675A
:1013C000676572656420746F6F20686967682E0AAC
:1013D00000426564206C6576656C696E67206661A5
:1013E000696C65642E2053656E736F722064697337
:1013F000636F6E6E6563746564206F7220636162F3
:101400006C652062726F6B656E2E0A004732382061
:1014100057300050494E44412070726F626520631E
:10142000616C6962726174696F6E20737461727449
:1014300000473238205730004D3234005345545F56
:1014400043484F505F005345545F535445505F002D
:101450005345545F574156455F00544D435F004329
:10146000524153485F00472D636F646520736C6978
:1014700063656420666F72206120646966666572C8
:10148000656E74206C6576656C2E20436F6E746992
:101490006E75653F00472D636F646520736C6963EB
:1014A000656420666F722061206469666665726596
:1014B0006E74206C6576656C2E20506C656173656A
:1014C0002072652D736C69636520746865206D6F8B
:1014D00064656C20616761696E2E205072696E745C
:1014E0002063616E63656C6C65642E00472D636FCD
:1014F000646520736C6963656420666F7220612087
:101500006E65776572206669726D776172652E20EF
:10151000506C6561736520757064617465207468D2
:1015200065206669726D776172652E205072696EF2
:10153000742063616E63656C6C65642E00472D6377
:101540006F646520736C6963656420666F722061E7
:10155000206E65776572206669726D776172652E9F
:1015600020436F6E74696E75653F00472D636F642D
:101570006520736C6963656420666F722061206406
:101580006966666572656E74207072696E746572E4
:1015900020747970652E20506C65617365207265CA
:1015A0002D736C69636520746865206D6F64656C6C
:1015B00020616761696E2E205072696E74206361CC
:1015C0006E63656C6C65642E00472D636F646520E7
:1015D000736C6963656420666F722061206469665C
:1015E000666572656E74207072696E7465722074BF
:1015F0007970652E20436F6E74696E75653F004784
:101600002D636F646520736C6963656420666F7217
:10161000206120646966666572656E742070726907
:101620006E74657220747970652E20436F6E7469D4
:101630006E75653F00472D636F646520736C696349
:10164000656420666F7220612064696666657265F4
:101650006E74207072696E74657220747970652E74
:1016600020506C656173652072652D736C696365CC
:1016700020746865206D6F64656C20616761696EB8
:101680002E205072696E742063616E63656C6C65A8
:10169000642E005072657373206B6E6F6220746FDE
:1016A0002070726568656174206E6F7A7A6C65204F
:1016B000616E6420636F6E74696E75652E00506C88
:1016C0006561736520707265737320746865206B43
:1016D0006E6F6220746F20756E6C6F616420666936
:1016E0006C616D656E740052656D6F7665206F6C10
:1016F000642066696C616D656E7420616E64207033
:101700007265737320746865206B6E6F6220746FEE
:10171000207374617274206C6F6164696E67206EEF
:1017200065772066696C616D656E742E00616E640C
:1017300020707265737320746865206B6E6F620031
:10174000496E736572742066696C616D656E7400B4
:10175000436F6C6F72206E6F7420636F727265637B
:10176000740046696C616D656E74206E6F74206CD8
:101770006F61646564004368616E67656420636FD0
:1017800072726563746C793F004C6F6164696E6757
:1017900020636F6C6F72004368616E6765207375BC
:1017A00063636573732100506C65617365206F70AE
:1017B000656E2069646C657220616E642072656D6F
:1017C0006F76652066696C616D656E74206D616E03
:1017D00075616C6C792E005761732066696C616D60
:1017E000656E7420756E6C6F6164207375636365DC
:1017F000737366756C3F00506C656173652075701E
:1018000067726164652E004E6577206669726D7738
:101810006172652076657273696F6E2061766169A9
:101820006C61626C653A0057616974696E67206625
:101830006F722050494E44412070726F6265206380
:101840006F6F6C696E6700437261736820646574C2
:1018500065637465642E20526573756D65207072C2
:10186000696E743F004372617368206465746563D8
:101870007465642E004578747275646572004368FF
:101880006F6F73652065787472756465723A004392
:10189000686F6F73652066696C616D656E743A0080
:1018A0004E6F206D6F76652E005761697420666FEC
:1018B0007220757365722E2E2E00536F6D65207029
:1018C000726F626C656D20656E636F756E746572A4
:1018D00065642C205A2D6C6576656C696E67206591
:1018E0006E666F72636564202E2E2E0053746162E3
:1018F0006C6520616D6269656E742074656D7065DC
:101900007261747572652032312D323643206973ED
:10191000206E656564656420612072696769642072
:101920007374616E64206973207265717569726584
:10193000642E00506C656173652072756E20585975
:101940005A2063616C6962726174696F6E206669A6
:101950007273742E0073746172740A006164635F41
:10196000696E69740A000A204F726967696E616C5A
:101970002050727573612069330A202020507275DF
:10198000736120526573656172636800436F6E74A2
:10199000696E7565207769746820616E6F7468651B
:1019A0007220626F7764656E3F0025002020202042
:1019B0002020002020202020200045524153494E65
:1019C0004720616C6C206461746100466163746FD0
:1019D000727920524553455400466163746F7279A1
:1019E0002052455345540044495341424C45440A12
:1019F00000454E41424C4544004653656E736F723C
:101A00002025530A004D4B33534D4D553253004E54
:101A10004F4D4B3353002E01536570202037203239
:101A200030313900436F6D70696C65643A2000286D
:101A30006E6F6E652C2064656661756C7420636FD3
:101A40006E66696729005365702020372032303177
:101A5000392032313A35313A32360020332E382EA1
:101A6000302D323638340A002055706C6F61642096
:101A7000696E2070726F677265737300205A3A0046
:101A800020593A0020583A0043524153485F444598
:101A900054454354454458590043524153485F44C8
:101AA00045544543544544590043524153485F44CB
:101AB0004554454354454458004D323900457874E7
:101AC00065726E616C2053504920666C6173680AC0
:101AD000573235583230434C206973206E6F742072
:101AE0007265732D0A706F6E64696E672E204C618B
:101AF0006E67756167650A73776974636820756ED0
:101B0000617661696C61626C652E00437261736815
:101B10004465746563742044495341424C45440014
:101B2000437261736844657465637420454E414235
:101B30004C45442100573235583230434C206E6FAB
:101B40007420726573706F6E64696E672E0A002070
:101B500020506C616E6E6572427566666572427980
:101B60007465733A20002046726565204D656D6F7F
:101B700072793A2000207C20417574686F723A2097
:101B800000204C61737420557064617465643A2060
:101B90000020536F667477617265205265736574B7
:101BA00000205761746368646F67205265736574C1
:101BB000002042726F776E206F75742052657365D6
:101BC00074002045787465726E616C20526573658F
:101BD0007400506F7765725570006572726F722075
:101BE00077726974696E6720746F2066696C65002E
:101BF000656E6473746F7073206869743A20004472
:101C00006F6E6520736176696E672066696C652EFC
:101C1000006F6B004D4B3353206669726D776172B4
:101C200065206465746563746564206F6E204D4B38
:101C300033207072696E7465720050727573612022
:101C40006933204D4B3353204F4B2E00426C616360
:101C50006B6F7574206F636375727265642E2052AA
:101C600065636F766572207072696E743F005365AC
:101C70006C66746573742077696C6C206265207281
:101C8000756E20746F2063616C6962726174652087
:101C900061636375726174652073656E736F726CD6
:101CA000657373207265686F6D696E672E00546886
:101CB000657265206973207374696C6C2061206E95
:101CC00065656420746F206D616B65205A206361C7
:101CD0006C6962726174696F6E2E20506C656173FD
:101CE0006520666F6C6C6F7720746865206D616E1F
:101CF00075616C2C2063686170746572204669722E
:101D000073742073746570732C2073656374696FCA
:101D10006E2043616C6962726174696F6E20666CDB
:101D20006F772E005072696E74657220686173203F
:101D30006E6F74206265656E2063616C69627261AA
:101D4000746564207965742E20506C65617365201C
:101D5000666F6C6C6F7720746865206D616E75615D
:101D60006C2C2063686170746572204669727374AC
:101D70002073746570732C2073656374696F6E20B3
:101D800043616C6962726174696F6E20666C6F7713
:101D90002E004F6C642073657474696E67732066DF
:101DA0006F756E642E2044656661756C74205049B1
:101DB000442C20457374657073206574632E2077FE
:101DC000696C6C206265207365742E005761726EB9
:101DD000696E673A20626F7468207072696E74650C
:101DE00072207479706520616E64206D6F7468650F
:101DF00072626F6172642074797065206368616ECD
:101E00006765642E005761726E696E673A20707262
:101E1000696E7465722074797065206368616E679D
:101E200065642E005761726E696E673A206D6F743B
:101E3000686572626F61726420747970652063688E
:101E4000616E6765642E0058595A2063616C69623F
:101E5000726174696F6E20616C6C2072696768745E
:101E60002E20536B65772077696C6C206265206348
:101E70006F72726563746564206175746F6D6174EF
:101E80006963616C6C792E0058595A2063616C69E2
:101E900062726174696F6E20616C6C207269676830
:101EA000742E20582F592061786573206172652047
:101EB000736C696768746C7920736B657765642EE1
:101EC00020476F6F64206A6F62210058595A20635F
:101ED000616C6962726174696F6E206F6B2E20583D
:101EE0002F5920617865732061726520706572706A
:101EF000656E646963756C61722E20436F6E6772E4
:101F00006174756C6174696F6E73210058595A2041
:101F100063616C6962726174696F6E206661696C7D
:101F200065642E2052696768742066726F6E742033
:101F300063616C6962726174696F6E20706F696E43
:101F400074206E6F7420726561636861626C652EC7
:101F50000058595A2063616C6962726174696F6ECE
:101F6000206661696C65642E2046726F6E74206312
:101F7000616C6962726174696F6E20706F696E74F2
:101F800073206E6F7420726561636861626C652E88
:101F90000058595A2063616C6962726174696F6E8E
:101FA000206661696C65642E20506C6561736520E4
:101FB000636F6E73756C7420746865206D616E75E7
:101FC000616C2E0058595A2063616C6962726174A9
:101FD000696F6E20636F6D70726F6D697365642ECB
:101FE0002052696768742066726F6E742063616C3A
:101FF0006962726174696F6E20706F696E74206EB1
:102000006F7420726561636861626C652E00585957
:102010005A2063616C6962726174696F6E20636FCC
:102020006D70726F6D697365642E2046726F6E7489
:102030002063616C6962726174696F6E20706F6990
:102040006E7473206E6F7420726561636861626C78
:10205000652E0058595A2063616C69627261746917
:102060006F6E206661696C65642E20426564206332
:10207000616C6962726174696F6E20706F696E74F1
:1020800020776173206E6F7420666F756E642E000A
:10209000506C6561736520706C6163652073746555
:1020A000656C207368656574206F6E206865617467
:1020B0006265642E0044697374616E6365206265B5
:1020C000747765656E20746970206F66207468652A
:1020D000206E6F7A7A6C6520616E6420746865206A
:1020E0006265642073757266616365206861732040
:1020F0006E6F74206265656E2073657420796574F7
:102100002E20506C6561736520666F6C6C6F772054
:10211000746865206D616E75616C2C2063686170F8
:102120007465722046697273742073746570732CC1
:102130002073656374696F6E204669727374206CD6
:10214000617965722063616C6962726174696F6E36
:102150002E00506C61636520612073686565742092
:102160006F6620706170657220756E646572207490
:102170006865206E6F7A7A6C6520647572696E6727
:10218000207468652063616C6962726174696F6E46
:10219000206F66206669727374203420706F696ED8
:1021A00074732E20496620746865206E6F7A7A6C8D
:1021B000652063617463686573207468652070616D
:1021C0007065722C20706F776572206F6666207460
:1021D0006865207072696E74657220696D6D6564E2
:1021E000696174656C792E00506C6561736520724D
:1021F000656D6F766520737465656C2073686565C1
:10220000742066726F6D20686561746265642E006B
:10221000497320737465656C207368656574206FFD
:102220006E20686561746265643F00206F662034CB
:1022300000536561726368696E672062656420633C
:10224000616C6962726174696F6E20706F696E741F
:1022500000206F662039004D6561737572696E6785
:10226000207265666572656E63652068656967687A
:1022700074206F662063616C6962726174696F6E4D
:1022800020706F696E7400506C6561736520636CBB
:1022900065616E20746865206E6F7A7A6C65206661
:1022A0006F722063616C6962726174696F6E2E2057
:1022B000436C69636B207768656E20646F6E652E72
:1022C000004175746F20686F6D650078797A63617D
:1022D0006C5F6D656173737572655F656E74657251
:1022E0000A0078797A63616C5F73706972616C3827
:1022F0002063783D25642063793D2564207A303D54
:10230000256420647A3D2564207261646975733D9B
:1023100025642061643D25640A0078797A63616CE4
:102320005F7365617263685A206E6F207369676EB0
:10233000616C0A20783D256C6420793D256C642011
:102340007A3D256C640A00204F4E2D5349474E417B
:102350004C20617420783D256420793D2564207AE5
:102360003D25642061643D25640A0078797A6361C3
:102370006C5F7365617263685A20783D256C6420D8
:10238000793D256C64207A3D256C640A000A00259D
:102390003032780078797A63616C5F7363616E5F65
:1023A000706978656C735F33327833322063783DBF
:1023B00025642063793D2564206D696E5F7A3D2533
:1023C00064206D61785F7A3D25640A0020253264BF
:1023D0002025640A000A002530327800206D696EDD
:1023E0003D2564206D61783D2564206469663D2546
:1023F000640A006D61785F633D253264206D617809
:102400005F6C3D25640A006D61785F633D25642043
:102410006D61785F723D2564206D61785F6D6174D8
:1024200063683D25640A0020783D256420793D25B8
:1024300064207A3D25640A00207061747465726EB0
:1024400020666F756E642061742025642025640AFF
:10245000000000F000F801FC03FE07FE07FE07FE87
:1024600007FC03F801F000000073697A656F6628C5
:10247000746F74616C293D25640A0073697A656F15
:102480006628626C6F636B5F627566666572293D74
:1024900025640A0078797A63616C5F6D6561737396
:1024A0007572655F6C656176650A00706F696E7440
:1024B0003D256420783D256420793D2564207A3DC2
:1024C00025640A0058025802584D584DB004F05582
:1024D000F055B00478797A63616C5F66696E645F09
:1024E0006265645F696E64756374696F6E5F73655E
:1024F0006E736F725F706F696E745F787920783D6C
:10250000256C6420793D256C64207A3D256C640A35
:1025100000203C20005741524E494E473A20467217
:102520006F6E7420706F696E74206E6F74207265A8
:1025300061636861626C652E205920636F6F7264FD
:10254000696E6174653A0000000040410000C040BF
:1025500000005C430000C04000005C4300004643B4
:102560000000404100004643497465726174696F20
:102570006E3A200043616C6962726174696F6E200B
:102580006661696C65642120436865636B207468CB
:1025900065206178657320616E642072756E2061BC
:1025A0006761696E2E005A206C6976652061646AE5
:1025B000757374206F7574206F662072616E676525
:1025C0002E2053657474696E6720746F20302E203E
:1025D000436C69636B20746F20636F6E74696E75F2
:1025E000652E005A206C6976652061646A75737483
:1025F000206F7574206F662072616E67652E2053A0
:10260000657474696E6720746F20300020423A0050
:1026100020453A00543A00494E5434007265636FC5
:102620007665725F6D616368696E655F737461740E
:10263000655F61667465725F706F7765725F706108
:102640006E69632C20696E697469616C2000726523
:10265000636F7665725F6D616368696E655F7374E1
:102660006174655F61667465725F706F7765725FD4
:1026700070616E69632C20696E697469616C2000F9
:1026800047393220450050525553412075766C6FC2
:10269000004734205330004D32362053256C7500EE
:1026A0004D3130362053004D383200473120462519
:1026B000640047312045322A64656661756C745F39
:1026C00072657472616374696F6E204634383000CD
:1026D0004731205A00204632303030002059004720
:1026E000312058004D383300506F736974696F6E34
:1026F00020726561642066726F6D20656570726F0F
:102700006D3A004D3233202573002E67636F00460B
:10271000656564726174653A00473120452D6465D2
:102720006661756C745F72657472616374696F6EF3
:10273000204634383000473120453520463132308C
:10274000004D3833004D31393020532564004D3170
:10275000303920532564004732382058205900472B
:1027600031205A32352046383030004731205A2542
:102770002D302E33662046252D302E33660047310E
:102780002045252D302E3366204632373030004D1F
:102790003833006F6B0A0055564C4F202D20656E64
:1027A000642025640A007374707325640A00776FCF
:1027B000726C6420636F6F7264696E617465733AE2
:1027C0002028252E33662C20252E33662C20252EFE
:1027D0003366290A00706879736963616C20636FDE
:1027E0006F7264696E617465733A2028252E3366B2
:1027F0002C20252E33662C20252E3366290A0043F3
:10280000757272656E7420706F73205A5F415849FB
:10281000533A252E33660A43757272656E742070C2
:102820006F7320455F415849533A252E33660A009D
:1028300041667465722077616974696E6720666F9E
:10284000722074656D703A0A43757272656E7420F9
:10285000706F7320585F415849533A252E33660AEA
:1028600043757272656E7420706F7320595F4158A2
:1028700049533A252E33660A005265636F766572B6
:10288000696E67207072696E74202020200024F425
:10289000D43050C38E20C2A24017828B7011127A9E
:1028A000910D816CD90AA861E108C758660761518A
:1028B00043061E4B5D05C145A7041A411104093D9D
:1028C0009803713931034036DB0265339102D4300D
:1028D0005402802E1D02632CEE01752AC501B0281A
:1028E000A001102781018F2564012B244B01E022D8
:1028F0003401AC211F018D200D01801FFC00841EBE
:10290000ED00971DDF00B81CD200E61BC600201B9F
:10291000BC00641AB200B219A8000A19A0006A1813
:102920009900D117910040178B00B516840031161D
:102930007E00B31579003A157300C7146F00581460
:102940006A00EE1366008813630025135E00C71249
:102950005B006C12570015125400C1115100701128
:102960004F0021114B00D61049008D104700461032
:10297000440002104200C00F4000800F3E00420F92
:102980003C00060F3B00CB0E3800930E37005C0E68
:102990003500270E3400F30D3200C10D3100900DCB
:1029A0003000600D2E00320D2D00050D2C00D90CCD
:1029B0002B00AE0C2900850C29005C0C2700350C7F
:1029C00027000E0C2600E80B2400C40B2400A00BEB
:1029D00023007D0B23005A0B2100390B2100180B1B
:1029E0002000F80A1F00D90A1E00BB0A1E009D0A1B
:1029F0001D00800A1D00630A1C00470A1B002C0AE8
:102A00001B00110A1A00F7091A00DD091900C40990
:102A10001900AB091900920917007B091800630916
:102A200017004C09160036091600200916000A097D
:102A30001500F5081500E0081400CC081400B808CB
:102A40001400A4081400900813007D0812006B08FD
:102A50001300580812004608120034081100230819
:102A600011001208110001081100F0071000E00722
:102A70001000D0071000C0071000B0070F00A1071A
:102A8000100091070E0083070F0074070F00650701
:102A90000E0057070E0049070E003B070D002E07DA
:102AA0000E0020070D0013070D0006070D00F906A4
:102AB0000C00ED060D00E0060C00D4060C00C80664
:102AC0000C00BC060C00B0060C00A4060B00990616
:102AD0000C008D060B0082060B0077060B006C06BF
:102AE0000B0061060A0057060B004C060A0042065E
:102AF0000A0038060A002E060A0024060A001A06F2
:102B00000A001006090007060A00FD050900F40581
:102B10000900EB050900E2050900D9050900D00507
:102B20000900C7050900BE050900B5050800AD0587
:102B30000800A50509009C050800940508008C05FF
:102B40000800840508007C050800740508006C0571
:102B50000700650508005D050700560508004E05DD
:102B60000700470507004005080038050700310544
:102B700007002A050700230507001C0506001605A7
:102B800007000F0507000805060002050700FB0403
:102B90000600F5040700EE040600E8040600E2045F
:102BA0000700DB040600D5040600CF040600C904B4
:102BB0000600C3040600BD040600B7040600B10405
:102BC0000500AC040600A6040600A00405009B0452
:102BD000060095040500900406008A04050085049B
:102BE0000500800406007A040500750405007004E1
:102BF00005006B04050066040500610405005C0423
:102C0000050057040500520405004D040500480462
:102C10000500430405003E0404003A0405003504A1
:102C20000500300404002C040500270404002304DC
:102C300005001E0404001A04040016040500110413
:102C400004000D0404000904050004040400000449
:102C50000400FC030400F8030400F4030400F00380
:102C60000400EC030400E8030400E4030400E003B0
:102C70000400DC030400D8030400D4030400D003E0
:102C80000400CC030400C8030300C503030024F4BC
:102C900004D9201BC40C5C0E9804C4095F026507AC
:102CA0007101F405F900FB04B30048048700C10377
:102CB00069005803550003034500BE023A00840230
:102CC000310053022A002902250004022000E401F9
:102CD0001C00C8011900AF011700980114008401FD
:102CE0001300710110006101100051010E00430139
:102CF0000D0036010B002B010B0020010B0015010C
:102D000009000C01090003010800FB000800F300A2
:102D10000800EB000700E4000600DE000600D80013
:102D20000600D2000600CC000500C7000500C20066
:102D30000500BD000400B9000400B5000400B100A6
:102D40000400AD000400A9000400A5000300A200D7
:102D500003009F0004009B000300980003009500FF
:102D6000020093000300900003008D0002008B001E
:102D70000300880002008600020084000300810036
:102D800002007F0002007D0002007B00020079004B
:102D90000200770001007600020074000200720059
:102DA0000100710002006F0002006D0001006C0064
:102DB00002006A000100690002006700010066006D
:102DC0000100650001006400020062000100610072
:102DD0000100600001005F0002005D0001005C0076
:102DE00001005B0001005A00010059000100580079
:102DF0000100570001005600010055000100540079
:102E00000100530000005300010052000100510076
:102E10000100500001004F0001004E0000004E0074
:102E200001004D0001004C0001004B0000004B0070
:102E300001004A000100490001004800000048006C
:102E40000100470001004600000046000100450067
:102E50000000450001004400010043000000430061
:102E6000010042000000420001004100000041005A
:102E70000100400001003F0000003F0001003E0053
:102E800000003E0001003D0000003D0001003C004C
:102E900000003C0000003C0001003B0000003B0043
:102EA00001003A0000003A0001003900000039003A
:102EB0000100380000003800000038000100370031
:102EC0000000370001003600000036000000360028
:102ED000010035000000350000003500010034001D
:102EE0000000340000003400010033000000330013
:102EF0000000330001003200000032000000320008
:102F000001003100000031000000310001003000FC
:102F1000000030000000300001002F0000002F00F2
:102F200000002F0000002F0001002E0000002E00E6
:102F300000002E0001002D0000002D0000002D00DB
:102F400000002D0001002C0000002C0000002C00CF
:102F500000002C0001002B0000002B0000002B00C3
:102F600000002B0001002A0000002A0000002A00B7
:102F700000002A00010029000000290000002900AB
:102F8000000029000000290001002800000028009E
:102F90000000280000002800000028000100270091
:102FA0000000270000002700000027000000270085
:102FB0000100260000002600000026000000260078
:102FC000000026000100250000002500000025006B
:102FD000000025000000250000002500010024005D
:102FE0000000240000002400000024000000240051
:102FF0000100230000002300000023000000230044
:103000000000230000002300000023000100220034
:103010000000220000002200000022000000220028
:10302000000022000100210000002100000021001A
:10303000000021000000210000002100000021000C
:1030400001002000000020000000200000002000FF
:1030500000002000000020000000200000002000F0
:1030600001001F0000001F0000001F0000001F00E3
:1030700000001F0000001F0000001F0001001E00D4
:1030800000001E0000001E0000001E00000025635E
:10309000252D31332E31335325362E3673004578A6
:1030A00072656D65207370616E206F66207468654F
:1030B000205A2076616C75657321006F6B0A00736E
:1030C000746172740A004D4D5532206669726D77D5
:1030D0006172652076657273696F6E20696E7661C4
:1030E0006C69642E2052657175697265642076651D
:1030F0007273696F6E3A206275696C64206E756DCB
:10310000626572202564206F722068696768657245
:103110002E004D4D55203D3E20276F6B270A004D58
:103120004D55203D3E20276F6B270A002564004D3A
:103130004D55203D3E20276F6B272C2072657375FF
:103140006D65207072696E740A004D4D5520726570
:1031500074727920617474656D7074206E722E20A3
:1031600025640A004D4D55203D3E20276F6B270AF0
:1031700000410A004D4D55203C3D202741270A00C3
:103180004D363030004D363030204155544F0050D0
:1031900052555341206673656E736F725F7265633B
:1031A0006F766572002568687500410A004D4D55BF
:1031B000203C3D202741270A0050300A004D25645D
:1031C0000A004D4D55203C3D20274D2564270A001F
:1031D00057300A004D4D55203C3D20275730270AD7
:1031E0000053330A004D4D55203C3D2027533327D3
:1031F0000A0052300A004D4D55203C3D20275230E8
:10320000270A004B25640A004D4D55203C3D2027E0
:103210004B2564270A004525640A004D4D55203C86
:103220003D2027452564270A0055300A004D4D559D
:10323000203C3D20275530270A0043300A004D4DE1
:1032400055203C3D20274330270A004C25640A00C6
:103250004D4D55203C3D20274C2564270A00542520
:10326000640A004D4D55203C3D2027542564270A13
:10327000004D4D55202D20454E41424C45440025E2
:103280006868750050300A004D310A004D4D5520D8
:103290003C3D20274D31270050300A004D4D552030
:1032A00076657273696F6E2076616C6964004D4D4E
:1032B00055203D3E202725646F6B270A00257500A9
:1032C00053320A004D4D55203C3D202753322700F4
:1032D0004D4D55203D3E202725646F6B270A002564
:1032E00075004D4D55206E6F7420726573706F6E52
:1032F00064696E67202D2044495341424C45440087
:1033000053310A004D4D55203C3D202753312700B5
:103310004D4D55203D3E2027737461727427004245
:103320006564206C6576656C696E67206661696CA2
:1033300065642E2053656E736F72206469646E74C9
:1033400020747269676765722E20446562726973C2
:10335000206F6E206E6F7A7A6C653F2057616974BA
:10336000696E6720666F722072657365742E0050F7
:103370006C6561736520757064617465206669723F
:103380006D7761726520696E20796F7572204D4D81
:1033900055322E2057616974696E6720666F7220FE
:1033A00072657365742E0044697361626C65206692
:1033B00061726D206D6F6465004661726D206E757F
:1033C0006D626572004D3834004D34340047323838
:1033D0002057004739390044697361626C65206683
:1033E00061726D206D6F64653F00252D392E395354
:1033F0005B002563252D31382E3138732563004657
:1034000061726D206E756D62657200536F756E64CA
:103410002020202020205B6C6F75645D00536F7549
:103420006E64202020205B6173736973745D0053A8
:103430006F756E64202020205B73696C656E745D0F
:1034400000536F756E642020202020205B6F6E6318
:10345000655D00536F756E642020202020205B6C1A
:103460006F75645D00536F7274202020202020202F
:103470005B6E6F6E655D00536F72742020205B6120
:103480006C7068616265745D00536F7274202020F7
:10349000202020205B74696D655D005344206361CA
:1034A000726420205B6E6F726D616C5D005344200E
:1034B00063617264205B666C73684169725D00527F
:1034C000506920706F727420202020205B6F6E5D29
:1034D0000052506920706F7274202020205B6F664C
:1034E000665D0054656D702E2063616C2E20202077
:1034F0005B6F6E5D0054656D702E2063616C2E20D5
:10350000205B6F66665D004C696E2E20636F727281
:10351000656374696F6E004D657368206265642031
:103520006C6576656C696E67004D4D55204D6F6416
:10353000655B537465616C74685D004D4D55204D3D
:103540006F6465205B4E6F726D616C5D0048572043
:1035500053657475700046616E7320636865636BB4
:1035600020205B6F66665D0046616E732063686550
:10357000636B2020205B6F6E5D00462E20617574AA
:103580006F6C6F6164205B6F66665D00462E206124
:1035900075746F6C6F616420205B6F6E5D00462EEA
:1035A000206175746F6C6F6164205B4E2F415D000C
:1035B00044697361626C65207374657070657273C1
:1035C000004D6F766520617869730054656D706594
:1035D0007261747572650054656D702E2063616C44
:1035E0006962726174696F6E005265736574205808
:1035F000595A2063616C6962722E005049442063FD
:10360000616C6962726174696F6E00426564206CFE
:103610006576656C20636F7272656374004D6573C7
:103620006820426564204C6576656C696E6700436E
:10363000616C696272617465205A0043616C6962F1
:10364000726174652058595A0053656C66746573CD
:10365000742020202020202020200057697A6172C9
:1036600064004C6F616420616C6C00456A65637432
:103670002066696C616D656E7400506C6561736580
:103680002070756C6C206F75742066696C616D6557
:103690006E7420696D6D6564696174656C7900553F
:1036A0006E6C6F6164696E672066696C616D656ED2
:1036B0007400526573756D696E67207072696E74FF
:1036C0000052657365740052656E616D65004669F0
:1036D000727374206C617965722063616C2E005383
:1036E000656C65637400537465656C20736865650B
:1036F000747300536865657400537570706F7274ED
:10370000004661696C207374617473204D4D5500DF
:103710004661696C207374617473005374617469D9
:10372000737469637320200043616C696272617411
:10373000696F6E004175746F4C6F61642066696CCF
:10374000616D656E7400456A6563742066696C61BD
:103750006D656E7400556E6C6F61642066696C6196
:103760006D656E74004C6F616420746F206E6F7AAB
:103770007A6C65004C6F61642066696C616D656E82
:1037800074004E6F2053442063617264005072696C
:103790006E742066726F6D20534400526573756DB0
:1037A00065207072696E7400506175736520707267
:1037B000696E7400507265686561740054756E6559
:1037C000004C6976652061646A757374205A0049FB
:1037D0006E666F2073637265656E0090137D00B036
:1037E000157800F0177300601A6E00F01C6900A0D5
:1037F0001F640050225F0020255A00E027550090EA
:103800002A5000202D4B00A02F4600F0314100101F
:10381000343C00F0353700A037320020392D0060ED
:103820003A2800703B2300603C1E00203D1900C078
:103830003D1400403E0F00A03E0A00F03E0500404F
:103840003F0000703FFBFF903FF6FFB03FF1FFC02D
:103850003FECFFD03FE7FFE03FE2FFF03FDDFFF04E
:103860003FD8FF20484F54454E4420544845524DC0
:10387000414C2052554E4157415900204845415432
:1038800042454420544845524D414C2052554E41EA
:1038900057415900544845524D414C2052554E41D4
:1038A0005741590042454420544845524D414C200F
:1038B00052554E415741590020544845524D414CB4
:1038C0002052554E415741592028205052454845D5
:1038D000415420484F54454E4429002054484552F5
:1038E0004D414C2052554E415741592028205052AD
:1038F00045484541542048454154424544290050DB
:10390000524548454154204552524F520042454489
:103910002050524548454154204552524F52005084
:103920006C656173652072657374617274004D49D2
:103930004E54454D50206669786564004572723A70
:10394000204D494E54454D50003A204578747275CB
:10395000646572207377697463686564206F666656
:103960002E204D494E54454D50207472696767654D
:103970007265642021004572723A204D494E5445CB
:103980004D50204245440054656D706572617475F8
:103990007265206865617465642062656420737770
:1039A000697463686564206F66662E204D494E54C5
:1039B000454D502074726967676572656420210007
:1039C000746D63323133305F686F6D655F656E743F
:1039D000657228617865735F6D61736B3D30782522
:1039E000303278290A00746D63323133305F686F8A
:1039F0006D655F6578697420746D63323133305F53
:103A000073675F686F6D696E675F617865735F6D1F
:103A100061736B3D3078253032780A00544D432075
:103A2000445249564552204F56455254454D500038
:103A3000566F6C74616765730054656D7065726173
:103A400074757265730042656C742073746174756B
:103A5000730053656E736F7220696E666F004578F0
:103A600074727564657220696E666F0058595A20C9
:103A700063616C2E2064657461696C7300756E6B94
:103A80006E6F776E004D4D553220636F6E6E6563BD
:103A900074656400446174653A00686F77746F2ED2
:103AA000707275736133642E636F6D00666F72752B
:103AB0006D2E707275736133642E636F6D0070725A
:103AC00075736133642E636F6D00746F20756E6C57
:103AD0006F61642066696C616D656E7400746F203F
:103AE0006C6F61642066696C616D656E7400507204
:103AF00065737320746865206B6E6F62003E43616E
:103B00006E63656C0050726568656174696E6720EC
:103B1000746F206375740050726568656174696EB6
:103B20006720746F20656A6563740050726568650C
:103B30006174696E6720746F20756E6C6F616400CC
:103B400050726568656174696E6720746F206C6F70
:103B50006164005072656865617420746865206EE8
:103B60006F7A7A6C6521004552524F523A0046698D
:103B70006C616D656E7420657874727564696E67CA
:103B80002026207769746820636F727265637420E1
:103B9000636F6C6F723F004175746F6C6F61646925
:103BA0006E672066696C616D656E74206973206153
:103BB00063746976652C206A7573742070726573FE
:103BC0007320746865206B6E6F6220616E6420697B
:103BD0006E736572742066696C616D656E742E2EED
:103BE0002E00546F74616C207072696E7420746959
:103BF0006D6500546F74616C2066696C616D656EF3
:103C000074005072696E742074696D650046696C49
:103C1000616D656E742075736564005269676874C0
:103C2000004C65667400592064697374616E636545
:103C30002066726F6D206D696E00536576657265E2
:103C400020736B657700536C6967687420736B65CC
:103C500077004D6561737572656420736B657700DD
:103C60005B303B305D20706F696E74206F666673E9
:103C700065740041646A757374696E67205A3A000E
:103C8000466C6173684169722049502041646472D6
:103C90003A004D4D5532202020202020204E2F412B
:103CA0000025642E25642E25642D256400204657AA
:103CB0003A005365702020372032303139004533C7
:103CC00044763666756C6C0045494E53795F3130E9
:103CD0006100315F37356D6D5F4D4B33002D2D2DFC
:103CE0002D2D2D2D2D2D2D2D2D00207265706F2049
:103CF000556E6B6E6F776E0020332E382E302D325E
:103D0000363834004669726D776172653A00256411
:103D10002E25642E25642E2564004D373032004D4B
:103D2000373031004D373032004D37303100464C9E
:103D30004558202D20203234302F3530005050206F
:103D400020202D20203235342F313030004849508A
:103D500053202D20203232302F3130300041425359
:103D600020202D20203235352F3130300041534175
:103D700020202D20203236302F3130350050455450
:103D800020202D20203233302F383500504C412058
:103D9000202D20203231352F363000252D31322E86
:103DA000313253252B382E31660045787472756494
:103DB00065723A006D6D000059005800583A00597C
:103DC0003A005A3A002563252D31332E31335325DD
:103DD0002B352E33660025533A0A25382E32666D70
:103DE0000A25533A0A25376C6464203A25326868FC
:103DF0006468203A2530326868646D0025533A0AB9
:103E000025382E32666D0A25533A0A253264682019
:103E1000253032646D2025303264730025362E3211
:103E2000666D6D004E2F410025533A0A25530A2531
:103E3000533A0A25533A004E2F410025342E32665C
:103E4000010025533A0A25530A25533A20202535E7
:103E50002E3266010A25533A202025352E3266017E
:103E60000052657365740052656172207369646500
:103E7000205B756D5D0046726F6E742073696465BA
:103E80005B756D5D00526967687420736964655B7A
:103E9000756D5D004C6566742073696465205B75A3
:103EA0006D5D005365742074656D70657261747525
:103EB00072653A0054656D70657261747572652043
:103EC00063616C6962726174696F6E206661696CAE
:103ED00065640054656D7065726174757265206308
:103EE000616C6962726174696F6E206973206669C2
:103EF0006E697368656420616E64206163746976BD
:103F0000652E2054656D702E2063616C696272614C
:103F100074696F6E2063616E2062652064697361ED
:103F2000626C656420696E206D656E7520536574E2
:103F300074696E67732D3E54656D702E2063616CDD
:103F40002E004E2F41002020300020203100495209
:103F50003A0046494E44413A0050494E44413A00E5
:103F600053656E736F722073746174650020003E38
:103F7000003E0020003E003E0054656D7065726199
:103F8000747572652063616C6962726174696F6EC9
:103F9000206661696C65642E20436F6E74696E756E
:103FA000652077697468207072657373696E672025
:103FB000746865206B6E6F622E0054656D7065725B
:103FC00061747572652063616C6962726174696F96
:103FD0006E20646F6E652E20436F6E74696E75651A
:103FE0002077697468207072657373696E672074D6
:103FF0006865206B6E6F622E00457874727564651B
:1040000072004D6F7665205A004D6F76652059001D
:104010004D6F766520580043726173682064657443
:10402000656374696F6E2063616E0A6265207475E2
:10403000726E6564206F6E206F6E6C7920696E0AF7
:104040004E6F726D616C206D6F6465005741524E0A
:10405000494E473A0A437261736820646574656328
:1040600074696F6E0A64697361626C656420696E5D
:104070000A537465616C7468206D6F6465004175E6
:10408000746F6C6F6164696E672066696C616D65E1
:104090006E7420617661696C61626C65206F6E6C14
:1040A00079207768656E2066696C616D656E742035
:1040B00073656E736F72206973207475726E6564B8
:1040C000206F6E2E2E2E004552524F523A204669D6
:1040D0006C616D656E742073656E736F72206973A9
:1040E000206E6F7420726573706F6E64696E672CDA
:1040F00020706C6561736520636865636B20636F16
:104100006E6E656374696F6E2E004D6F646520631B
:1041100068616E676520696E2070726F6772657383
:1041200073202E2E2E0043616C69627261746500EB
:10413000506C65617365206C6F616420504C412048
:1041400066696C616D656E742066697273742E00A9
:10415000497320504C412066696C616D656E742016
:104160006C6F616465643F0043616E63656C00461B
:10417000696C616D656E740053656C656374205085
:104180004C412066696C616D656E743A0052756EC3
:104190006E696E672057697A6172642077696C6C0A
:1041A0002064656C6574652063757272656E742039
:1041B00063616C6962726174696F6E207265737598
:1041C0006C747320616E6420737461727420667203
:1041D0006F6D2074686520626567696E6E696E67D1
:1041E0002E20436F6E74696E75653F00507265686E
:1041F000656174696E67206E6F7A7A6C652E2050E7
:104200006C6561736520776169742E00456A65632A
:104210007400556E6C6F61640055736520756E6C2B
:104220006F616420746F2072656D6F7665206669BA
:104230006C616D656E742031206966206974207030
:10424000726F747275646573206F757473696465D9
:10425000206F66207468652072656172204D4D552F
:1042600020747562652E2055736520656A656374D8
:104270002069662069742069732068696464656ECA
:1042800020696E20747562652E004C6F6164696EE2
:10429000672066696C616D656E7400506C65617352
:1042A0006520696E7365727420504C412066696C9C
:1042B000616D656E7420746F207468652065787414
:1042C00072756465722C207468656E2070726573F7
:1042D00073206B6E6F6220746F206C6F6164206955
:1042E000742E00506C6561736520696E736572741D
:1042F00020504C412066696C616D656E7420746F4E
:104300002074686520666972737420747562652014
:104310006F66204D4D552C207468656E2070726557
:10432000737320746865206B6E6F6220746F206CED
:104330006F61642069742E00596F752063616E206F
:10434000616C7761797320726573756D652074682F
:10435000652057697A6172642066726F6D204361CF
:104360006C6962726174696F6E202D3E2057697AA4
:104370006172642E00506C656173652063686563CB
:104380006B206F75722068616E64626F6F6B206165
:104390006E6420666978207468652070726F626C44
:1043A000656D2E205468656E20726573756D65208D
:1043B0007468652057697A61726420627920726539
:1043C000626F6F74696E6720746865207072696EC1
:1043D0007465722E00416C6C20697320646F6E6589
:1043E0002E204861707079207072696E74696E67F2
:1043F0002100506C6561736520636C65616E206897
:1044000065617462656420616E64207468656E2005
:10441000707265737320746865206B6E6F622E0016
:10442000446F20796F752077616E7420746F2072ED
:104430006570656174206C6173742073746570209D
:10444000746F20726561646A757374206469737433
:10445000616E6365206265747765656E206E6F7A44
:104460007A6C6520616E6420686561746265643F82
:1044700000492077696C6C20737461727420746FCA
:10448000207072696E74206C696E6520616E6420A4
:10449000796F752077696C6C206772616475616CE7
:1044A0006C79206C6F77657220746865206E6F7A06
:1044B0007A6C6520627920726F746174696E67200E
:1044C000746865206B6E6F622C20756E74696C2049
:1044D000796F75207265616368206F7074696D61B2
:1044E0006C206865696768742E20436865636B207B
:1044F00074686520706963747572657320696E20D5
:104500006F75722068616E64626F6F6B20696E20D8
:10451000636861707465722043616C696272617472
:10452000696F6E2E004E6F7720492077696C6C2082
:1045300063616C6962726174652064697374616E31
:104540006365206265747765656E20746970206F9D
:104550006620746865206E6F7A7A6C6520616E647F
:104560002068656174626564207375726661636555
:104570002E00497320697420504C412066696C619B
:104580006D656E743F0053656C656374206E6F7A61
:104590007A6C6520707265686561742074656D70F1
:1045A00065726174757265207768696368206D61F2
:1045B000746368657320796F7572206D61746572BC
:1045C00069616C2E004E6F7720492077696C6C20F2
:1045D00070726568656174206E6F7A7A6C652066AA
:1045E0006F7220504C412E0049732066696C616DDA
:1045F000656E74206C6F616465643F00497320666A
:10460000696C616D656E742031206C6F61646564E6
:104610003F004E6F7720492077696C6C207072657F
:1046200068656174206E6F7A7A6C6520666F72209F
:10463000504C412E00492077696C6C2072756E20B9
:104640007A2063616C6962726174696F6E206E6F4B
:10465000772E004E6F772072656D6F7665207468D7
:10466000652074657374207072696E742066726F51
:104670006D20737465656C2073686565742E0050D9
:104680006C656173652072656D6F7665207368690E
:104690007070696E672068656C70657273206669FA
:1046A0007273742E00492077696C6C2072756E20CD
:1046B00078797A2063616C6962726174696F6E20C7
:1046C0006E6F772E2049742077696C6C2074616B53
:1046D0006520617070726F782E203132206D696EA6
:1046E000732E0046697273742C20492077696C6CB4
:1046F0002072756E207468652073656C66746573CE
:104700007420746F20636865636B206D6F73742011
:10471000636F6D6D6F6E20617373656D626C792070
:1047200070726F626C656D732E0048692C20492091
:10473000616D20796F7572204F726967696E616C67
:10474000205072757361206933207072696E7465D0
:10475000722E20576F756C6420796F75206C696BB1
:1047600065206D6520746F20677569646520796FB9
:1047700075207468726F756768207468652073654A
:104780007475702070726F636573733F00452D639D
:104790006F72726563743A005A2D636F727265634B
:1047A000743A00592D636F72726563743A00582D24
:1047B000636F72726563743A0053706F6F6C4A6F07
:1047C000696E2020205B4E2F415D0053706F6F6C2F
:1047D0004A6F696E2020205B6F66665D0053706FC4
:1047E0006F6C4A6F696E202020205B6F6E5D004603
:1047F00069726D776172652020205B6E6F6E655DFA
:10480000004669726D77617265205B7374726963CB
:10481000745D004669726D776172652020205B7758
:1048200061726E5D004669726D776172652020204D
:104830005B6E6F6E655D004D6F64656C202020209F
:1048400020205B6E6F6E655D004D6F64656C20208F
:1048500020205B7374726963745D004D6F64656CD6
:104860002020202020205B7761726E5D004D6F64F8
:10487000656C2020202020205B6E6F6E655D004EF1
:104880006F7A7A6C6520202020205B6E6F6E655DEC
:10489000004E6F7A7A6C652020205B7374726963B6
:1048A000745D004E6F7A7A6C6520202020205B7743
:1048B00061726E5D004E6F7A7A6C65202020202038
:1048C0005B6E6F6E655D00485720536574757000B0
:1048D000485720536574757000436865636B7300B7
:1048E0004E6F7A7A6C6520642E20205B302E343037
:1048F0005D004E6F7A7A6C6520642E20205B302E2E
:1049000036305D004E6F7A7A6C6520642E20205B15
:10491000302E34305D004E6F7A7A6C6520642E2024
:10492000205B302E32355D00537465656C207368F2
:104930006565747300473830004D3435004D3435AB
:10494000205A004737360057697A617264207374C1
:104950006174653A2025640A0057697A617264209F
:10496000656E642073746174653A2025640A00439F
:104970007573746F6D0054657874757200536D6F44
:104980006F74680047312059252D2E326620452549
:104990002D2E3366004731205825642059252D2EB1
:1049A00032662045252D2E3366006673656E736F63
:1049B000725F73746F705F616E645F736176655F61
:1049C0007072696E740A00000E1315110E0000005B
:1049D00004120912040000001C1F11111F00000026
:1049E00006191803130C00040E1F041C0000000419
:1049F0000A0A0A0A11110E001F1511151F000000E6
:104A00000103161C0800000000110A04110A040C1E
:104A100012120C000000002563252D31382E31388C
:104A200053256300252E31305320002563252D3179
:104A3000382E3138732563002563252D2E313653EA
:104A400020002563252E3135533A25732533640024
:104A50002020202020202020202020202020202056
:104A600020202020006572726F723A20756E6B6E86
:104A70006F776E206D6F76650A006E6F206D6F76B2
:104A8000650A00542D636F64650A00756E6C6F6172
:104A9000640A006C6F61640A006D6D755F67657410
:104AA0005F726573706F6E7365202D206265676934
:104AB0006E206D6F76653A20006D6D755F67657469
:104AC0005F726573706F6E736528292072657475E7
:104AD000726E696E673A2025640A00556E6C6F61CC
:104AE00064696E672066696E697368656420320A5E
:104AF00000556E6C6F616420320A00556E6C6F61F8
:104B000064696E672066696E697368656420310A3E
:104B100000556E6C6F616420310A004D4D55207355
:104B2000746172747320726573706F6E64696E67FE
:104B30000A004D4D55206E6F7420726573706F6E54
:104B400064696E670A0046696C616D656E74206FFA
:104B50007574206F662072616E6765202564200A77
:104B6000000000803F555585410000803F0000C88F
:104B70004100000040555505420000C03F0000487C
:104B8000420000204055558542000070C1ABAAA6E6
:104B900042000060C10000A0410000C0C000002031
:104BA0004100002041ABAA3A41000020C15555D533
:104BB00040000048C2555505424D3730312045343C
:104BC000004D373031204533004D373031204532EC
:104BD000004D373031204531004D373031204530E0
:104BE0000046696C616D656E74206E72206F75741D
:104BF000206F662072616E67652100206661696CB6
:104C000065642E00207375636365656465642E00BA
:104C10004D4D552063616E5F6C6F61643A00416475
:104C2000646974696F6E616C206C6F61642061747B
:104C300074656D7074206E722E2025640A007732C0
:104C400035783230636C5F63666D0A007732357891
:104C50003230636C5F656E7465720A004D4D55208D
:104C60004F4B2E20526573756D696E672E2E2E0088
:104C70004D4D55204F4B2E20526573756D696E67F3
:104C800020706F736974696F6E2E2E2E004D4D5516
:104C9000204F4B2E20526573756D696E67207465C9
:104CA0006D70657261747572652E2E2E004669787E
:104CB0002074686520697373756520616E64207463
:104CC00068656E20707265737320627574746F6EA0
:104CD000206F6E204D4D5520756E69742E005072F8
:104CE00065737320746865206B6E6F6220746F202B
:104CF000726573756D65206E6F7A7A6C6520746568
:104D00006D70657261747572652E004D4D55206E23
:104D100065656473207573657220617474656E7463
:104D2000696F6E2E00506C656173652072656D6FE2
:104D300076652066696C616D656E7420616E6420B5
:104D40007468656E20707265737320746865206B7B
:104D50006E6F622E00456A656374696E67206669CE
:104D60006C616D656E74004D4D55206C6F616420F3
:104D70006661696C6564202020202000256325334E
:104D8000642F2564256300726573756C74207661E9
:104D90006C75653A2025640A0020693D253264203F
:104DA000636E743D2532642076616C3D2532640A61
:104DB00000636C7573746572733A0A0020693D254F
:104DC000326420737465703D2532640A00736F721B
:104DD0007465642073616D706C65733A0A00555395
:104DE000415254322072782046756C6C2121210A80
:104DF000003A2000202020202020202020202020D9
:104E00002020202020202000203A200020202020C8
:104E10002020202020202020202020202020202092
:104E200000202020202020202020202020200025BD
:104E3000730025632533642F25642563005A2536C6
:104E40002E326620005A2020202D2D2D2000256393
:104E50002533642525002D2D2D0025336868640039
:104E6000253353253373252500205344002020206B
:104E700000555342002025753E257500203F3E25F4
:104E80007500204625750020463F00204630202032
:104E90000025632D2D3A2D2D202000256325337507
:104EA000682025632563002563253032753A253057
:104EB0003275256325630050494E444120486561A1
:104EC00074696E670054656D702E2063616C2E20CE
:104ED0002020202020202020200043616C69627265
:104EE0006174696F6E20646F6E650043616C696206
:104EF000726174696E67205A0042656420646F6E47
:104F000065004265642048656174696E67004865A4
:104F10006174696E6720646F6E652E004865617408
:104F2000696E67004739322045302E3000473238ED
:104F3000004D3130392053323135004D3139302078
:104F4000533630004D31343020533630004D31303F
:104F5000342053323135004D31303700473120583D
:104F6000352E302045342E302046313030302E3032
:104F7000004731205A302E32302046313030302E2A
:104F800030004731205835352E3020453235204607
:104F9000313430302E3000473120592D322E302020
:104FA00046313030302E3000473120583234302EE8
:104FB00030204532352E30202046323230302E30EF
:104FC000004739322045302E30004731205A302EEC
:104FD000332046313030302E3000473120583535BF
:104FE0002E302045382E302046323030302E3000E2
:104FF00047312058352E30204533322E302046316F
:105000003830302E30004731205835352E3020458D
:1050100033322E302046313037332E3000473120A6
:105020004634303030004D3230342053313030305F
:10503000004731205A352046373230302E3030305C
:1050400000473120452D312E35303030302046326A
:105050003130302E3030303030004D383300473969
:105060003000473231004739322045302E3000477A
:105070003120583530205935352045332E363237DA
:1050800037330047312058323030205935352045EC
:10509000302E343933383600473120583230302002
:1050A0005937352045332E363237373300473120D4
:1050B000583530205937352045302E34393338367D
:1050C00000473120583530205939352045332E36A8
:1050D0003237373300473120583230302059393594
:1050E0002045302E3439333836004731205832309D
:1050F0003020593131352045332E363237373300A1
:1051000047312058353020593131352045302E3443
:10511000393338360047312058353020593133354E
:105120002045332E3632373733004731205832305E
:105130003020593133352045302E36363137340062
:105140004731205832303020593135352045322E04
:10515000363237373300473120583130302059311B
:105160003535204532004731205837352059313503
:10517000352045322E350047312046313038300059
:105180004731205A302E3135302046373230302EDC
:105190003030300047312058353020593135350016
:1051A000574F4D4F444F3B4F314F2D4F244F5425B8
:1051B00064004731205A302E342046313030302EB2
:1051C0003000473120592D332E30204631303030D9
:1051D0002E30004D383300473120583130302E30DA
:1051E000204531322E352046313030302E300047C8
:1051F00031205836302E302045392E30204631307F
:1052000030302E30000650F04FDA4FCA4FC14FA851
:105210004F974F824F714F5C4F665062505E505AAD
:10522000504150315026501D5047312058353020C4
:105230005933352045252D2E336600945180517702
:10524000516651565140512A5115510051EA50D5DD
:1052500050C150AD50985083506F50496E76616C7C
:105260006964205049442063616C2E207265737517
:105270006C74732E204E6F742073746F726564208B
:10528000746F20454550524F4D2E004D3530300043
:105290004731205A313520463135303000473931D9
:1052A00000473120583530205931393020453020E1
:1052B000463730303000473930004D373032004DFE
:1052C0003730322043004D3730322055004D3730D3
:1052D00032004D3730322043004731205A313520DB
:1052E00046313530300047393100473120583530AC
:1052F0002059313930204530204637303030004D8C
:10530000383300473930004D3834004D31303420C7
:105310005330004D3834004D373032204300473190
:105320002058313020593138302046343030300068
:105330004731205A31302046313330302E30303032
:10534000004D313430205330004D31303420533053
:1053500000473120452D302E303735303020463251
:105360003130302E3030303030004D313037002584
:10537000530A2025532020252D33640A202553204D
:1053800020252D33640025530A2025532020252D68
:1053900033640A2025532020252D33640A20255309
:1053A00020252D33640025530A2025532020252D48
:1053B00033640A2025532020252D33640A202553E9
:1053C00020205820252D336420205920252D33649A
:1053D0000025530A2025532020252D33640A20253B
:1053E000532020252D33640A2025532020582025C2
:1053F0002D336420205920252D3364002025533A75
:105400002020256425630A2050494E44413A20203B
:10541000202025642563002025533A202020256480
:105420002563200A2025533A2020202020202564AF
:105430002563200A00205057523A202020202020A7
:1054400025642E25303164560A204245443A2020F6
:105450002020202025642E25303164560025530A53
:1054600020582025640A205920256400464C4558C0
:10547000202D20203234302F353000505020202075
:105480002D20203235342F31303000484950532000
:105490002D20203232302F31303000414253202035
:1054A0002D20203235352F3130300041534120201E
:1054B0002D20203236302F313035005045542020F9
:1054C0002D20203233302F383500504C4120202DF4
:1054D00020203231352F3630006E6F7A7A6C65209D
:1054E0002D20203235302F30006661726D20202053
:1054F0002D20203235302F3830004D3131372046C5
:1055000069727374206C617965722063616C2E001E
:1055100043757272656E74005573656420647572AC
:10552000696E67207072696E74005049442063612F
:105530006C2E2066696E697368656400504944206A
:1055400063616C2E2020202020202020202020009D
:10555000506C656173652077616974005072696E83
:105560007420706175736564005072696E742046B2
:10557000414E004E6F7A7A6C652046414E00546F62
:1055800074616C004C617374207072696E74004DAC
:105590004D55206C6F6164206661696C73004D4DE0
:1055A00055206661696C73004C6173742070726978
:1055B0006E74206661696C75726573004D4D55207F
:1055C000706F776572206661696C73004D4D552070
:1055D0006C6F6164206661696C73004D4D55206687
:1055E00061696C7300546F74616C206661696C75DD
:1055F0007265730043726173680046696C616D2E59
:105600002072756E6F75747300506F7765722066C7
:1056100061696C7572657300546F74616C206661AA
:10562000696C757265730043726173680046696CDA
:10563000616D2E2072756E6F75747300506F776593
:1056400072206661696C75726573004C61737420B9
:105650007072696E74206661696C7572657300544E
:105660006F74616C004C617374207072696E7400A9
:10567000416D6269656E7400426564004E6F7A7AAE
:105680006C650042656C74207374617475730043BB
:105690006F6F6C646F776E002F2F20616374696F7A
:1056A0006E3A70617573650025533A202534642085
:1056B00052504D0A25533A20202534642052504D33
:1056C0000A0046696E697368696E67206D6F76655A
:1056D0006D656E747300536F756E642020202020FA
:1056E000205B6C6F75645D00536F756E64202020C5
:1056F000205B6173736973745D00536F756E642012
:105700002020205B73696C656E745D00536F756E4D
:10571000642020202020205B6F6E63655D00536F46
:10572000756E642020202020205B6C6F75645D0006
:105730004D4D55204D6F64655B537465616C7468A5
:105740005D004D4D55204D6F6465205B4E6F726D51
:10575000616C5D004372617368206465742E202063
:105760005B4E2F415D004372617368206465742E47
:1057700020205B6F66665D0043726173682064651C
:10578000742E2020205B6F6E5D004D6F64652020BD
:1057900020205B537465616C74685D004D6F6465B7
:1057A00020202020205B4E6F726D616C5D00466191
:1057B0006E7320636865636B20205B6F66665D00B7
:1057C00046616E7320636865636B2020205B6F6E9B
:1057D0005D0046696C2E2073656E736F7220205BCE
:1057E0006F6E5D0046696C2E2073656E736F72205C
:1057F0005B6F66665D004368616E67652066696C15
:10580000616D656E7400466C6F77005370656564FA
:10581000004D61676E65747320636F6D702E5B4E13
:105820002F415D004D61676E65747320636F6D700D
:105830002E5B4F66665D004D61676E657473206315
:105840006F6D702E205B4F6E5D005A2D70726F620F
:1058500065206E722E202020205B335D005A2D7053
:10586000726F6265206E722E202020205B355D00F5
:105870005A2D70726F6265206E722E202020205B80
:10588000315D004D657368202020202020202020DD
:105890005B3778375D004D6573682020202020201D
:1058A0002020205B3378335D0046616E2073706585
:1058B000656400426564004E6F7A7A6C65005365DA
:1058C0007474696E6773005072696E742061626FE0
:1058D0007274656400596573004E6F0053746F7085
:1058E000207072696E740046696C6520696E636F22
:1058F0006D706C6574652E20436F6E74696E75658E
:1059000020616E797761793F004261636B004D6180
:10591000696E004D363030002F2F20616374696F3F
:105920006E3A63616E63656C004D3234004D323304
:1059300020257300052E2E0057616974696E67205B
:10594000666F72206E6F7A7A6C6520616E64206279
:10595000656420636F6F6C696E670053656C6620C9
:1059600074657374204F4B0053656C6620746573C7
:105970007420737461727420200046616C7365201A
:1059800074726967676572696E67005377617070DA
:1059900065640046726F6E742F6C65667420666174
:1059A0006E7300417869730041786973206C656E8D
:1059B000677468004C6F6F73652070756C6C6579E7
:1059C00000456E6473746F70206E6F742068697424
:1059D00000456E6473746F70004D6F746F72004594
:1059E0006E6473746F707300576972696E672065B7
:1059F00072726F7200426564202F20486561746581
:105A000072004E6F7420636F6E6E65637465640020
:105A10004865617465722F546865726D6973746F3F
:105A20007200506C6561736520636865636B203A32
:105A30000053656C6674657374206572726F7220B2
:105A40002100457874722066616E2073706565640C
:105A50003A202564200A005072696E742066616ED7
:105A60002073706565643A202564200A00546573CC
:105A70007420313A0A00457874722066616E207392
:105A8000706565643A202564200A005072696E745E
:105A90002066616E2073706565643A202564200A73
:105AA000005465737420323A0A006C63645F736556
:105AB0006C66636865636B5F617869732025642C2D
:105AC0002025640A004D3834004731205A313520F2
:105AD00046313030300047323820570025632041AE
